{
  "_format": "hh-sol-artifact-1",
  "contractName": "CIDStorage",
  "sourceName": "contracts/CIDStorage.sol",
  "abi": [
    {
      "anonymous": false,
      "inputs": [
        {
          "indexed": false,
          "internalType": "string",
          "name": "cid",
          "type": "string"
        },
        {
          "indexed": true,
          "internalType": "address",
          "name": "uploader",
          "type": "address"
        },
        {
          "indexed": false,
          "internalType": "uint256",
          "name": "timestamp",
          "type": "uint256"
        },
        {
          "indexed": false,
          "internalType": "string",
          "name": "note",
          "type": "string"
        }
      ],
      "name": "CIDStored",
      "type": "event"
    },
    {
      "inputs": [
        {
          "internalType": "uint256",
          "name": "",
          "type": "uint256"
        }
      ],
      "name": "allCIDs",
      "outputs": [
        {
          "internalType": "string",
          "name": "",
          "type": "string"
        }
      ],
      "stateMutability": "view",
      "type": "function"
    },
    {
      "inputs": [
        {
          "internalType": "string",
          "name": "",
          "type": "string"
        }
      ],
      "name": "cidMap",
      "outputs": [
        {
          "internalType": "uint256",
          "name": "timestamp",
          "type": "uint256"
        },
        {
          "internalType": "string",
          "name": "note",
          "type": "string"
        }
      ],
      "stateMutability": "view",
      "type": "function"
    },
    {
      "inputs": [],
      "name": "getAllCIDs",
      "outputs": [
        {
          "internalType": "string[]",
          "name": "",
          "type": "string[]"
        }
      ],
      "stateMutability": "view",
      "type": "function"
    },
    {
      "inputs": [
        {
          "internalType": "string",
          "name": "_cid",
          "type": "string"
        }
      ],
      "name": "getCIDInfo",
      "outputs": [
        {
          "internalType": "uint256",
          "name": "",
          "type": "uint256"
        },
        {
          "internalType": "string",
          "name": "",
          "type": "string"
        }
      ],
      "stateMutability": "view",
      "type": "function"
    },
    {
      "inputs": [
        {
          "internalType": "string",
          "name": "_cid",
          "type": "string"
        },
        {
          "internalType": "string",
          "name": "_note",
          "type": "string"
        }
      ],
      "name": "storeCID",
      "outputs": [],
      "stateMutability": "nonpayable",
      "type": "function"
    },
    {
      "inputs": [],
      "name": "totalCIDs",
      "outputs": [
        {
          "internalType": "uint256",
          "name": "",
          "type": "uint256"
        }
      ],
      "stateMutability": "view",
      "type": "function"
    }
  ],
  "bytecode": "0x608060405234801561001057600080fd5b50610f45806100206000396000f3fe608060405234801561001057600080fd5b50600436106100625760003560e01c80633410e7ce146100675780635b84362b14610085578063784053f1146100a3578063c61877e3146100d4578063cdd5c0e314610105578063ece1946814610121575b600080fd5b61006f610151565b60405161007c919061076c565b60405180910390f35b61008d61022a565b60405161009a91906107a7565b60405180910390f35b6100bd60048036038101906100b8919061090b565b610237565b6040516100cb92919061099e565b60405180910390f35b6100ee60048036038101906100e9919061090b565b61035e565b6040516100fc92919061099e565b60405180910390f35b61011f600480360381019061011a91906109ce565b610420565b005b61013b60048036038101906101369190610a72565b61056e565b6040516101489190610a9f565b60405180910390f35b60606001805480602002602001604051908101604052809291908181526020016000905b8282101561022157838290600052602060002001805461019490610af0565b80601f01602080910402602001604051908101604052809291908181526020018280546101c090610af0565b801561020d5780601f106101e25761010080835404028352916020019161020d565b820191906000526020600020905b8154815290600101906020018083116101f057829003601f168201915b505050505081526020019060010190610175565b50505050905090565b6000600180549050905090565b600060606000808460405161024c9190610b5d565b90815260200160405180910390206040518060400160405290816000820154815260200160018201805461027f90610af0565b80601f01602080910402602001604051908101604052809291908181526020018280546102ab90610af0565b80156102f85780601f106102cd576101008083540402835291602001916102f8565b820191906000526020600020905b8154815290600101906020018083116102db57829003601f168201915b5050505050815250509050600081600001511161034a576040517f08c379a000000000000000000000000000000000000000000000000000000000815260040161034190610bc0565b60405180910390fd5b806000015181602001519250925050915091565b60008180516020810182018051848252602083016020850120818352809550505050505060009150905080600001549080600101805461039d90610af0565b80601f01602080910402602001604051908101604052809291908181526020018280546103c990610af0565b80156104165780601f106103eb57610100808354040283529160200191610416565b820191906000526020600020905b8154815290600101906020018083116103f957829003601f168201915b5050505050905082565b6000825111610464576040517f08c379a000000000000000000000000000000000000000000000000000000000815260040161045b90610c2c565b60405180910390fd5b600080836040516104759190610b5d565b908152602001604051809103902060000154036104c2576001829080600181540180825580915050600190039060005260206000200160009091909190915090816104c09190610df8565b505b6040518060400160405280428152602001828152506000836040516104e79190610b5d565b90815260200160405180910390206000820151816000015560208201518160010190816105149190610df8565b509050503373ffffffffffffffffffffffffffffffffffffffff167fabe2b8f75c382c1293647491542b6bb1b4058c10254e73aa9e8ad2e57a3b7be383428460405161056293929190610eca565b60405180910390a25050565b6001818154811061057e57600080fd5b90600052602060002001600091509050805461059990610af0565b80601f01602080910402602001604051908101604052809291908181526020018280546105c590610af0565b80156106125780601f106105e757610100808354040283529160200191610612565b820191906000526020600020905b8154815290600101906020018083116105f557829003601f168201915b505050505081565b600081519050919050565b600082825260208201905092915050565b6000819050602082019050919050565b600081519050919050565b600082825260208201905092915050565b60005b83811015610680578082015181840152602081019050610665565b60008484015250505050565b6000601f19601f8301169050919050565b60006106a882610646565b6106b28185610651565b93506106c2818560208601610662565b6106cb8161068c565b840191505092915050565b60006106e2838361069d565b905092915050565b6000602082019050919050565b60006107028261061a565b61070c8185610625565b93508360208202850161071e85610636565b8060005b8581101561075a578484038952815161073b85826106d6565b9450610746836106ea565b925060208a01995050600181019050610722565b50829750879550505050505092915050565b6000602082019050818103600083015261078681846106f7565b905092915050565b6000819050919050565b6107a18161078e565b82525050565b60006020820190506107bc6000830184610798565b92915050565b6000604051905090565b600080fd5b600080fd5b600080fd5b600080fd5b7f4e487b7100000000000000000000000000000000000000000000000000000000600052604160045260246000fd5b6108188261068c565b810181811067ffffffffffffffff82111715610837576108366107e0565b5b80604052505050565b600061084a6107c2565b9050610856828261080f565b919050565b600067ffffffffffffffff821115610876576108756107e0565b5b61087f8261068c565b9050602081019050919050565b82818337600083830152505050565b60006108ae6108a98461085b565b610840565b9050828152602081018484840111156108ca576108c96107db565b5b6108d584828561088c565b509392505050565b600082601f8301126108f2576108f16107d6565b5b813561090284826020860161089b565b91505092915050565b600060208284031215610921576109206107cc565b5b600082013567ffffffffffffffff81111561093f5761093e6107d1565b5b61094b848285016108dd565b91505092915050565b600082825260208201905092915050565b600061097082610646565b61097a8185610954565b935061098a818560208601610662565b6109938161068c565b840191505092915050565b60006040820190506109b36000830185610798565b81810360208301526109c58184610965565b90509392505050565b600080604083850312156109e5576109e46107cc565b5b600083013567ffffffffffffffff811115610a0357610a026107d1565b5b610a0f858286016108dd565b925050602083013567ffffffffffffffff811115610a3057610a2f6107d1565b5b610a3c858286016108dd565b9150509250929050565b610a4f8161078e565b8114610a5a57600080fd5b50565b600081359050610a6c81610a46565b92915050565b600060208284031215610a8857610a876107cc565b5b6000610a9684828501610a5d565b91505092915050565b60006020820190508181036000830152610ab98184610965565b905092915050565b7f4e487b7100000000000000000000000000000000000000000000000000000000600052602260045260246000fd5b60006002820490506001821680610b0857607f821691505b602082108103610b1b57610b1a610ac1565b5b50919050565b600081905092915050565b6000610b3782610646565b610b418185610b21565b9350610b51818560208601610662565b80840191505092915050565b6000610b698284610b2c565b915081905092915050565b7f434944206e6f7420666f756e6400000000000000000000000000000000000000600082015250565b6000610baa600d83610954565b9150610bb582610b74565b602082019050919050565b60006020820190508181036000830152610bd981610b9d565b9050919050565b7f4349442063616e6e6f7420626520656d70747900000000000000000000000000600082015250565b6000610c16601383610954565b9150610c2182610be0565b602082019050919050565b60006020820190508181036000830152610c4581610c09565b9050919050565b60008190508160005260206000209050919050565b60006020601f8301049050919050565b600082821b905092915050565b600060088302610cae7fffffffffffffffffffffffffffffffffffffffffffffffffffffffffffffffff82610c71565b610cb88683610c71565b95508019841693508086168417925050509392505050565b6000819050919050565b6000610cf5610cf0610ceb8461078e565b610cd0565b61078e565b9050919050565b6000819050919050565b610d0f83610cda565b610d23610d1b82610cfc565b848454610c7e565b825550505050565b600090565b610d38610d2b565b610d43818484610d06565b505050565b5b81811015610d6757610d5c600082610d30565b600181019050610d49565b5050565b601f821115610dac57610d7d81610c4c565b610d8684610c61565b81016020851015610d95578190505b610da9610da185610c61565b830182610d48565b50505b505050565b600082821c905092915050565b6000610dcf60001984600802610db1565b1980831691505092915050565b6000610de88383610dbe565b9150826002028217905092915050565b610e0182610646565b67ffffffffffffffff811115610e1a57610e196107e0565b5b610e248254610af0565b610e2f828285610d6b565b600060209050601f831160018114610e625760008415610e50578287015190505b610e5a8582610ddc565b865550610ec2565b601f198416610e7086610c4c565b60005b82811015610e9857848901518255600182019150602085019450602081019050610e73565b86831015610eb55784890151610eb1601f891682610dbe565b8355505b6001600288020188555050505b505050505050565b60006060820190508181036000830152610ee48186610965565b9050610ef36020830185610798565b8181036040830152610f058184610965565b905094935050505056fea2646970667358221220f2356a1a752056ec74121baa222e6255b28c3714a28067d3e02d5ebfedaef18364736f6c63430008120033",
  "linkReferences": {},
  "deployedLinkReferences": {}
}